{
  "contracts/test/MockV3Aggregator.sol": {
    "MockV3Aggregator": {
      "abi": [
        {
          "inputs": [
            {
              "internalType": "int256",
              "name": "_initialAnswer",
              "type": "int256"
            }
          ],
          "stateMutability": "nonpayable",
          "type": "constructor"
        },
        {
          "anonymous": false,
          "inputs": [
            {
              "indexed": true,
              "internalType": "int256",
              "name": "current",
              "type": "int256"
            },
            {
              "indexed": true,
              "internalType": "uint256",
              "name": "roundId",
              "type": "uint256"
            },
            {
              "indexed": false,
              "internalType": "uint256",
              "name": "timestamp",
              "type": "uint256"
            }
          ],
          "name": "AnswerUpdated",
          "type": "event"
        },
        {
          "inputs": [],
          "name": "_latestRoundData",
          "outputs": [
            {
              "internalType": "int256",
              "name": "",
              "type": "int256"
            }
          ],
          "stateMutability": "view",
          "type": "function"
        },
        {
          "inputs": [],
          "name": "latestRoundData",
          "outputs": [
            {
              "internalType": "int256",
              "name": "",
              "type": "int256"
            },
            {
              "internalType": "int256",
              "name": "",
              "type": "int256"
            },
            {
              "internalType": "int256",
              "name": "",
              "type": "int256"
            },
            {
              "internalType": "int256",
              "name": "",
              "type": "int256"
            },
            {
              "internalType": "int256",
              "name": "",
              "type": "int256"
            }
          ],
          "stateMutability": "view",
          "type": "function"
        }
      ],
      "devdoc": {
        "kind": "dev",
        "methods": {},
        "version": 1
      },
      "evm": {
        "bytecode": {
          "linkReferences": {},
          "object": "608060405234801561001057600080fd5b5060405161014c38038061014c83398101604081905261002f9161006f565b600081815560405142815282907f0559884fd3a460db3073b7fc896cc77986f16e378210ded43186175bf646fc5f9060200160405180910390a350610088565b60006020828403121561008157600080fd5b5051919050565b60b6806100966000396000f3fe6080604052348015600f57600080fd5b506004361060325760003560e01c806316e3759a146037578063feaf968c146052575b600080fd5b603f60005481565b6040519081526020015b60405180910390f35b60008054818080604080519586526020860194909452928401919091526060830152608082015260a001604956fea2646970667358221220b26ce4878270c67fe3ee1669dadb652219bea790a15f89c3fdd6e36e84cc975b64736f6c634300080b0033",
          "opcodes": "PUSH1 0x80 PUSH1 0x40 MSTORE CALLVALUE DUP1 ISZERO PUSH2 0x10 JUMPI PUSH1 0x0 DUP1 REVERT JUMPDEST POP PUSH1 0x40 MLOAD PUSH2 0x14C CODESIZE SUB DUP1 PUSH2 0x14C DUP4 CODECOPY DUP2 ADD PUSH1 0x40 DUP2 SWAP1 MSTORE PUSH2 0x2F SWAP2 PUSH2 0x6F JUMP JUMPDEST PUSH1 0x0 DUP2 DUP2 SSTORE PUSH1 0x40 MLOAD TIMESTAMP DUP2 MSTORE DUP3 SWAP1 PUSH32 0x559884FD3A460DB3073B7FC896CC77986F16E378210DED43186175BF646FC5F SWAP1 PUSH1 0x20 ADD PUSH1 0x40 MLOAD DUP1 SWAP2 SUB SWAP1 LOG3 POP PUSH2 0x88 JUMP JUMPDEST PUSH1 0x0 PUSH1 0x20 DUP3 DUP5 SUB SLT ISZERO PUSH2 0x81 JUMPI PUSH1 0x0 DUP1 REVERT JUMPDEST POP MLOAD SWAP2 SWAP1 POP JUMP JUMPDEST PUSH1 0xB6 DUP1 PUSH2 0x96 PUSH1 0x0 CODECOPY PUSH1 0x0 RETURN INVALID PUSH1 0x80 PUSH1 0x40 MSTORE CALLVALUE DUP1 ISZERO PUSH1 0xF JUMPI PUSH1 0x0 DUP1 REVERT JUMPDEST POP PUSH1 0x4 CALLDATASIZE LT PUSH1 0x32 JUMPI PUSH1 0x0 CALLDATALOAD PUSH1 0xE0 SHR DUP1 PUSH4 0x16E3759A EQ PUSH1 0x37 JUMPI DUP1 PUSH4 0xFEAF968C EQ PUSH1 0x52 JUMPI JUMPDEST PUSH1 0x0 DUP1 REVERT JUMPDEST PUSH1 0x3F PUSH1 0x0 SLOAD DUP2 JUMP JUMPDEST PUSH1 0x40 MLOAD SWAP1 DUP2 MSTORE PUSH1 0x20 ADD JUMPDEST PUSH1 0x40 MLOAD DUP1 SWAP2 SUB SWAP1 RETURN JUMPDEST PUSH1 0x0 DUP1 SLOAD DUP2 DUP1 DUP1 PUSH1 0x40 DUP1 MLOAD SWAP6 DUP7 MSTORE PUSH1 0x20 DUP7 ADD SWAP5 SWAP1 SWAP5 MSTORE SWAP3 DUP5 ADD SWAP2 SWAP1 SWAP2 MSTORE PUSH1 0x60 DUP4 ADD MSTORE PUSH1 0x80 DUP3 ADD MSTORE PUSH1 0xA0 ADD PUSH1 0x49 JUMP INVALID LOG2 PUSH5 0x6970667358 0x22 SLT KECCAK256 0xB2 PUSH13 0xE4878270C67FE3EE1669DADB65 0x22 NOT 0xBE 0xA7 SWAP1 LOG1 0x5F DUP10 0xC3 REVERT 0xD6 0xE3 PUSH15 0x84CC975B64736F6C634300080B0033 "
        },
        "gasEstimates": {
          "creation": {
            "codeDepositCost": "36400",
            "executionCost": "infinite",
            "totalCost": "infinite"
          },
          "external": {
            "_latestRoundData()": "2262",
            "latestRoundData()": "2373"
          }
        },
        "methodIdentifiers": {
          "_latestRoundData()": "16e3759a",
          "latestRoundData()": "feaf968c"
        }
      },
      "storageLayout": {
        "storage": [
          {
            "astId": 3,
            "contract": "contracts/test/MockV3Aggregator.sol:MockV3Aggregator",
            "label": "_latestRoundData",
            "offset": 0,
            "slot": "0",
            "type": "t_int256"
          }
        ],
        "types": {
          "t_int256": {
            "encoding": "inplace",
            "label": "int256",
            "numberOfBytes": "32"
          }
        }
      },
      "userdoc": {
        "kind": "user",
        "methods": {},
        "version": 1
      }
    }
  }
}